:020000040800F2
:10000000005000205929000889280008932800087A
:10001000992800089F280008A52800080000000073
:10002000000000000000000000000000318800080F
:10003000AB28000800000000118A0008598A000857
:10004000A1290008A1290008A1290008A129000868
:10005000A1290008A1290008A1290008A129000858
:10006000A1290008A1290008A1290008A129000848
:10007000A1290008A1290008A1290008A129000838
:10008000A1290008A1290008A1290008A129000828
:10009000A1290008A1290008A1290008A129000818
:1000A000A1290008B9280008A1290008A1290008F1
:1000B000A1290008CD280008A1290008A1290008CD
:1000C000A1290008A1290008A1290008A1290008E8
:1000D000A1290008A1290008A1290008A1290008D8
:1000E000A1290008A1290008A1290008000000009A
:1000F0000000000000000000000000000000000000
:0C01000000000000000000005FF808F1A3
:1001100010B5054C237833B9044B13B10448AFF341
:1001200000800123237010BD80000020000000002B
:100130003C99000808B5034B1BB103490348AFF3D2
:10014000008008BD00000000840000203C990008E9
:10015000034613F8012B002AFBD1181A0138704707
:1001600081F0004102E000BF83F0004330B54FEA68
:1001700041044FEA430594EA050F08BF90EA020FD5
:100180001FBF54EA000C55EA020C7FEA645C7FEA68
:10019000655C00F0E2804FEA5454D4EB5555B8BF8B
:1001A0006D420CDD2C4480EA020281EA030382EAFC
:1001B000000083EA010180EA020281EA0303362D8E
:1001C00088BF30BD11F0004F4FEA01314FF4801C61
:1001D0004CEA113102D0404261EB410113F0004F73
:1001E0004FEA03334CEA133302D0524263EB43032A
:1001F00094EA050F00F0A780A4F10104D5F1200EC8
:100200000DDB02FA0EFC22FA05F2801841F1000122
:1002100003FA0EF2801843FA05F359410EE0A5F1F6
:1002200020050EF1200E012A03FA0EFC28BF4CF027
:10023000020C43FA05F3C01851EBE37101F00045DD
:1002400007D54FF0000EDCF1000C7EEB00006EEBEA
:100250000101B1F5801F1BD3B1F5001F0CD3490874
:100260005FEA30004FEA3C0C04F101044FEA4452CB
:1002700012F5800F80F09A80BCF1004F08BF5FEA52
:10028000500C50F1000041EB045141EA050130BD32
:100290005FEA4C0C404141EB0101013C28BFB1F544
:1002A000801FE9D291F0000F04BF01460020B1FA8F
:1002B00081F308BF2033A3F10B03B3F120020CDA62
:1002C0000C3208DD02F1140CC2F10C0201FA0CF040
:1002D00021FA02F10CE002F11402D8BFC2F1200CA5
:1002E00001FA02F120FA0CFCDCBF41EA0C0190405B
:1002F000E41AA2BF01EB0451294330BD6FEA0404A4
:100300001F3C1CDA0C340EDC04F11404C4F120028E
:1003100020FA04F001FA02F340EA030021FA04F3A0
:1003200045EA030130BDC4F10C04C4F1200220FAF7
:1003300002F001FA04F340EA0300294630BD21FA35
:1003400004F0294630BD94F0000F83F4801306BFFB
:1003500081F480110134013D4EE77FEA645C18BFEF
:100360007FEA655C29D094EA050F08BF90EA020F86
:1003700005D054EA000C04BF1946104630BD91EA7E
:10038000030F1EBF0021002030BD5FEA545C05D181
:100390004000494128BF41F0004130BD14F58004C0
:1003A0003CBF01F5801130BD01F0004545F0FE4134
:1003B00041F470014FF0000030BD7FEA645C1ABF69
:1003C000194610467FEA655C1CBF0B46024650EAA0
:1003D000013406BF52EA033591EA030F41F40021CC
:1003E00030BD00BF90F0000F04BF0021704730B552
:1003F0004FF4806404F132044FF000054FF0000127
:1004000050E700BF90F0000F04BF0021704730B5E7
:100410004FF4806404F1320410F0004548BF4042BC
:100420004FF000013EE700BF42004FEAE2014FEA11
:1004300031014FEA02701FBF12F07F4393F07F4FEC
:1004400081F06051704732F07F4208BF704793F0EF
:100450007F4F04BF41F40021704730B54FF4607402
:1004600001F0004521F000411CE700BF50EA010205
:1004700008BF704730B54FF000050AE050EA0102AE
:1004800008BF704730B511F0004502D5404261EB1E
:1004900041014FF4806404F132045FEA915C3FF45F
:1004A000D8AE4FF003025FEADC0C18BF03325FEAFC
:1004B000DC0C18BF033202EBDC02C2F1200300FAAD
:1004C00003FC20FA02F001FA03FE40EA0E0021FAD2
:1004D00002F11444BDE600BF70B54FF0FF0C4CF4C0
:1004E000E06C1CEA11541DBF1CEA135594EA0C0F72
:1004F00095EA0C0F00F0DEF82C4481EA030621EAAD
:100500004C5123EA4C5350EA013518BF52EA0335E7
:1005100041F4801143F4801338D0A0FB02CE4FF099
:100520000005E1FB02E506F00042E0FB03E54FF0C9
:100530000006E1FB03569CF0000F18BF4EF0010EC1
:10054000A4F1FF04B6F5007F64F5407404D25FEABD
:100550004E0E6D4146EB060642EAC62141EA555170
:100560004FEAC52040EA5E504FEACE2EB4F1FD0CB2
:1005700088BFBCF5E06F1ED8BEF1004F08BF5FEA30
:10058000500E50F1000041EB045170BD06F00046E2
:1005900046EA010140EA020081EA0301B4EB5C048F
:1005A000C2BFD4EB0C0541EA045170BD41F4801187
:1005B0004FF0000E013C00F3AB8014F1360FDEBFAC
:1005C000002001F0004170BDC4F10004203C35DA88
:1005D0000C341BDC04F11404C4F1200500FA05F30B
:1005E00020FA04F001FA05F240EA020001F00042AC
:1005F00021F0004110EBD37021FA04F642EB060122
:100600005EEA430E08BF20EAD37070BDC4F10C044B
:10061000C4F1200500FA04F320FA05F001FA04F20F
:1006200040EA020001F0004110EBD37041F10001FB
:100630005EEA430E08BF20EAD37070BDC4F1200506
:1006400000FA05F24EEA020E20FA04F301FA05F26E
:1006500043EA020321FA04F001F0004121FA04F216
:1006600020EA020000EBD3705EEA430E08BF20EAE6
:10067000D37070BD94F0000F0FD101F00046400020
:1006800041EB010111F4801F08BF013CF7D041EAA2
:10069000060195F0000F18BF704703F000465200A6
:1006A00043EB030313F4801F08BF013DF7D043EA77
:1006B0000603704794EA0C0F0CEA135518BF95EA2D
:1006C0000C0F0CD050EA410618BF52EA4306D1D1B4
:1006D00081EA030101F000414FF0000070BD50EAD3
:1006E000410606BF1046194652EA430619D094EA5D
:1006F0000C0F02D150EA013613D195EA0C0F05D147
:1007000052EA03361CBF104619460AD181EA03019A
:1007100001F0004141F0FE4141F470014FF0000052
:1007200070BD41F0FE4141F4780170BD70B54FF0ED
:10073000FF0C4CF4E06C1CEA11541DBF1CEA13556D
:1007400094EA0C0F95EA0C0F00F0A7F8A4EB05044F
:1007500081EA030E52EA03354FEA013100F0888046
:100760004FEA03334FF0805545EA131343EA12630F
:100770004FEA022245EA111545EA10654FEA0026C4
:100780000EF000419D4208BF964244F1FD0404F57D
:10079000407402D25B084FEA3202B61A65EB0305D9
:1007A0005B084FEA32024FF480104FF4002CB6EB96
:1007B000020E75EB030E22BFB61A754640EA0C0016
:1007C0005B084FEA3202B6EB020E75EB030E22BF56
:1007D000B61A754640EA5C005B084FEA3202B6EB97
:1007E000020E75EB030E22BFB61A754640EA9C0056
:1007F0005B084FEA3202B6EB020E75EB030E22BF26
:10080000B61A754640EADC0055EA060E18D04FEAE3
:10081000051545EA16754FEA06164FEAC30343EA83
:1008200052734FEAC2025FEA1C1CC0D111F4801F50
:100830000BD141EA00014FF000004FF0004CB6E749
:1008400011F4801F04BF01430020B4F1FD0C88BFE8
:10085000BCF5E06F3FF6AFAEB5EB030C04BFB6EBF3
:10086000020C5FEA500C50F1000041EB045170BDE6
:100870000EF0004E4EEA113114EB5C04C2BFD4EB13
:100880000C0541EA045170BD41F480114FF0000E97
:10089000013C90E645EA060E8DE60CEA135594EA13
:1008A0000C0F08BF95EA0C0F3FF43BAF94EA0C0F16
:1008B0000AD150EA01347FF434AF95EA0C0F7FF48B
:1008C00025AF104619462CE795EA0C0F06D152EADF
:1008D00003353FF4FDAE1046194622E750EA4106C3
:1008E00018BF52EA43067FF4C5AE50EA41047FF4D4
:1008F0000DAF52EA43057FF4EBAE12E74A0011D286
:1009000012F5001211D20DD56FF47873B3EB625269
:100910000ED44FEAC12343F0004343EA505323FA75
:1009200002F070474FF00000704750EA013002D1EA
:100930004FF0FF3070474FF00000704780B582B035
:1009400002AF02F02FF800F071F800F079FA00F031
:10095000CFF800F0B1F900F009F900F021F900F04A
:1009600073F900F01FFA3C2001F0A4F9012001F016
:100970001FFA01F0E9FB02220A21204801F090FB56
:1009800001F016FC4FF4FA7002F03EF801F0DCFBC7
:1009900001F00EFC1A4B1B6840F2E7321A640C217E
:1009A000174804F05FFE174B0193012300930023C7
:1009B00080221549154806F02DFB154B01930123A4
:1009C0000093002380221349134806F023FB0022E2
:1009D0000121052005F07FFE0346104A1360104BED
:1009E0000093002301224FF4FA610E4807F0A4FBA4
:1009F00003460D4A136006F015FEFEE7DC99000879
:100A000044010020D8010020E8990008D50F000813
:100A1000F4010020F4990008310F0008FC010020C7
:100A2000911B0008009A0008F801002080B594B0DE
:100A300000AF07F1280328220021184608F086FAA3
:100A400007F1140300221A605A609A60DA601A6192
:100A50003B1D00221A605A609A60DA600923BB626B
:100A60004FF48033FB6200233B630123BB6301230C
:100A70003B6402237B644FF48033BB644FF4E01388
:100A8000FB6407F12803184602F044FF0346002BDD
:100A900001D001F0BBF80F237B610223BB6100236F
:100AA000FB614FF480633B6200237B6207F1140318
:100AB0000221184603F0B0F90346002B01D001F0E3
:100AC000A5F803237B604FF40073BB604FF44043F1
:100AD000FB603B1D184603F06FFB0346002B01D063
:100AE00001F094F803F082FA00BF5037BD4680BD94
:100AF00080B584B000AF3B1D00221A605A609A6036
:100B0000184B194A1A60174B00229A60154B0022A5
:100B10001A73144B00221A75124B4FF46022DA61DB
:100B2000104B00225A600F4B01221A610D4801F050
:100B30008FFF0346002B01D001F068F810237B6083
:100B40000123BB600023FB603B1D1946054802F0F2
:100B500043FA0346002B01D001F058F800BF1037CC
:100B6000BD4680BD9C0000200024014080B500AF40
:100B7000094B0A4A1A60084B04225A60064B40F699
:100B8000FF729A60044802F068FE0346002B01D011
:100B900001F03CF800BF80BDCC00002000300040D8
:100BA00080B582B000AF254B254A1A60234B4FF029
:100BB000FF325A60214B00229A60204803F068FC03
:100BC0000346002B01D001F021F84FF480611D484D
:100BD00002F014FE0346012B2BD13B1D00210A46D7
:100BE0001A800A469A7000233B6000233B71002361
:100BF0007B710023BB713B1D012219460F4803F096
:100C0000D3FC0346002B01D001F000F801233B7018
:100C100001237B700123BB700023FB703B46012244
:100C20001946064803F030FE0346002B01D000F0C1
:100C3000EDFF00BF0837BD4680BD00BFD8000020D3
:100C4000002800400008014080B500AF184B194A49
:100C50001A60174B4FF482725A60154B4FF40042E2
:100C60009A60134B0022DA60114B00221A61104B7C
:100C700000225A610E4B4FF400729A610C4B102205
:100C8000DA610B4B00221A62094B00225A62084BB0
:100C900000229A62064B0A22DA62054804F04CF9F7
:100CA0000346002B01D000F0B1FF00BF80BD00BFA4
:100CB000EC0000200030014080B58EB000AF07F19D
:100CC000280300221A605A609A60DA6007F1200354
:100CD00000221A605A603B1D00221A605A609A6016
:100CE000DA601A615A619A612D4B4FF080421A60A6
:100CF0002B4B0F225A602A4B00229A60284B40F25D
:100D0000E732DA60264B00221A61254B00229A61F5
:100D1000234804F07FFB0346002B01D000F076FF50
:100D20004FF48053BB6207F1280319461C4804F0B6
:100D300005FF0346002B01D000F068FF184804F0BF
:100D400039FC0346002B01D000F060FF00233B621A
:100D500000237B6207F120031946114805F08AFA47
:100D60000346002B01D000F051FF60237B6000237D
:100D7000BB600023FB6000237B613B1D0C221946F6
:100D8000074804F019FE0346002B01D000F03EFF97
:100D9000034801F0D7FC00BF3837BD4680BD00BF17
:100DA0004401002080B586B000AF07F1080300229F
:100DB0001A605A609A60DA603B4600221A605A60F4
:100DC0001D4B1E4A1A601C4B47225A601A4B0022C8
:100DD0009A60194B42F20F72DA60174B00221A61C7
:100DE000154B00229A61144804F014FB0346002BB3
:100DF00001D000F00BFF4FF48053BB6007F10803F4
:100E000019460D4804F09AFE0346002B01D000F06D
:100E1000FDFE00233B6000237B603B4619460648ED
:100E200005F028FA0346002B01D000F0EFFE00BFCA
:100E30001837BD4680BD00BF8C0100200004004073
:100E400080B588B000AF07F1100300221A605A6025
:100E50009A60DA60334B9B69324A43F01003936126
:100E6000304B9B6903F01003FB60FB682D4B9B69C3
:100E70002C4A43F0200393612A4B9B6903F0200323
:100E8000BB60BB68274B9B69264A43F00403936110
:100E9000244B9B6903F004037B607B68214B9B69B7
:100EA000204A43F0080393611E4B9B6903F008033B
:100EB0003B603B68002250211B4802F0B6FC002238
:100EC00001211A4802F0B1FC50233B6101237B61F0
:100ED0000023BB610223FB6107F11003194612488E
:100EE00002F008FB01233B6101237B610023BB610E
:100EF0000223FB6107F1100319460C4802F0FAFACD
:100F00004FF460633B6100237B610223BB6107F107
:100F100010031946044802F0EDFA00BF2037BD4621
:100F200080BD00BF0010024000080140000C0140DD
:100F300080B584B000AF78604FF40061224802F0C1
:100F40005DFC0346012B0FD04FF400711E4802F0E8
:100F500055FC0346012B07D04FF480611A4802F07C
:100F60004DFC0346012B2AD14FF40061164802F0D4
:100F700045FC0346012B02D10023FB7314E04FF420
:100F80000071114802F03AFC0346012B02D1012303
:100F9000FB7309E04FF480610B4802F02FFC03461D
:100FA000012B01D10223FB73084B186807F10F01D5
:100FB0000023002205F0F0FBC82006F0F1F90448F8
:100FC00002F08DFCB8E700BF00080140FC010020E2
:100FD000CC00002080B58AB002AF7860A54801F04F
:100FE00081FAA54B1B781A4652001344DAB2A34B80
:100FF0001B781344DAB2A24B1A70A14B1B7807225C
:1010000000921A221021502001F07EFA9A4B1B7890
:10101000012B02D80323FB7701E00123FB77002398
:10102000BB7758E0BA7F974BA3FB021359080B46D6
:101030005B000B44D31ADAB2904B1B789A4218D05B
:101040008D4B1B781A4613465B001A44BB7F134432
:101050008D4A52F82300BB7F1A4692001A44520070
:101060001344DBB21133DBB20122194601F018F848
:101070002EE0824B1B78BA7F9A4229D1012000F0E2
:1010800081FE07F10C033E221A807B4B1B781A4627
:1010900013465B001A44BB7F13447B4A52F823205B
:1010A00007F10C031146184607F058FFBB7F1A469C
:1010B00092001A4452001344DBB21133D9B207F143
:1010C0000C030122184600F0EBFF002000F05AFE4E
:1010D000BB7F0133BB77BA7FFB7F9A42A2D301F07B
:1010E00067F86A4B1B6807F11D014FF0FF32184685
:1010F00005F0E8FC0346012B40F006817B7F002BC6
:101100001DD15E4B1B780133DAB25C4B1A705B4B1E
:101110001B78FA7F9A4200F2F780574B1B78013315
:10112000DAB2554B1A70554B00221A70524B1B788D
:10113000022B40F2E980504B00221A70E4E07B7FE2
:10114000012B2CD14D4B1B78002B06D04B4B1B7821
:10115000013BDAB2494B1A70D6E0484B1B78002BA2
:1011600040F0D280444B1B78002B06D0424B1B78BA
:10117000013BDAB2404B1A7002E03F4B02221A7078
:101180003D4B1B78012B02D80323FB7701E00123A1
:10119000FB77FB7F013BDAB2384B1A70B4E07B7F00
:1011A000022B40F0B180344B1B781A465200134496
:1011B000DAB2324B1B781344DAB2354B1A70344B27
:1011C0001B78002B0AD1334B01930123009300239A
:1011D00080223149314805F01DFF8BE02C4B1B78F4
:1011E000012B0AD12E4B019301230093002380226F
:1011F0002C492D4805F00EFF7CE0254B1B78022B77
:101200000AD12A4B0193012300930023802228490D
:10121000284805F0FFFE6DE01D4B1B78032B0AD11B
:101220001F4B01930123009300238022224923486E
:1012300005F0F0FE5EE0164B1B78042B0AD1204B24
:10124000019301230093002380221E491E4805F0CC
:10125000E1FE4FE00E4B1B78052B3DD11B4B01935C
:10126000012300930023802219491A4805F0D2FE79
:1012700040E000BF149A0008000200200102002094
:1012800002020020ABAAAAAA00000020FC01002054
:10129000D4010020E0010020209A0008C5130008B6
:1012A000F00100202C9A0008691A0008E4010020CF
:1012B000389A0008A5160008489A00089D170008EB
:1012C000DC010020589A000821130008E8010020E2
:1012D000689A0008591800080D4B1B78062B09D195
:1012E0000C4B019301230093002380220A490B48F1
:1012F00005F090FE00F028FF00F05AFF002006F0F5
:1013000083F80A2001F080FB00F01EFF66E600BFB4
:10131000D4010020EC010020749A0008891900080B
:1013200080B588B000AF7860224801F069FC642184
:10133000204801F03FFD1F4801F042FEF8611D48C2
:1013400001F00CFDFB69C3F5BB6304339B08BB6173
:10135000194801F0C7F807F10C03BA691749184694
:1013600007F0D4FD062000F023FD07F10C03022254
:101370001421184600F094FE012000F019FD00F041
:1013800017FF0F4B1B6807F117016422184605F081
:1013900099FB0346012B0AD1FB7D002B07D0FB7D77
:1013A000012B04D0FB7D022B01D100F0FBFB00F0F0
:1013B000CBFEB9E79C000020809A00088C9A0008B8
:1013C000FC01002080B58CB002AF7860002387F864
:1013D000273007F1200300221946AA4803F07CF9C0
:1013E000A94801F07FF897F82730002B1CD197F817
:1013F00020301A4697F82130194697F8223007F125
:10140000140000930B46A14907F080FD042000F072
:10141000CFFC07F1140302221921184600F040FE08
:10142000012000F0C5FC8EE097F82730012B2BD16E
:1014300097F8252097F8243007F11400944907F015
:1014400065FD042000F0B4FC07F114030222192109
:10145000184600F025FE97F8262007F110038D4965
:10146000184607F053FD012000F08CFC07F1100333
:1014700019220621184600F0F1FD002000F082FC40
:10148000012000F095FC5EE097F82730022B2BD16D
:1014900097F8262097F8243007F114007E4907F0CA
:1014A00035FD042000F084FC07F114030222192109
:1014B000184600F0F5FD97F8252007F10C03754953
:1014C000184607F023FD012000F05CFC07F10C0337
:1014D00019222121184600F0C1FD002000F052FC25
:1014E000012000F065FC2EE097F82730032B2AD16D
:1014F00097F8262097F8253007F11400674907F080
:1015000005FD042000F054FC07F114030222192108
:10151000184600F0C5FD97F8242007F108035D493F
:10152000184607F0F3FC012000F02CFC07F108033B
:1015300019223C21184600F091FD002000F022FC09
:10154000012000F035FC00F033FE554B1B6807F11D
:1015500023016422184605F0B5FA0346012B40F03A
:101560008D8097F82330002B32D197F82730012B4C
:101570000CD197F82630013387F8263097F82630BB
:10158000172B7BD9002387F8263077E097F8273090
:10159000022B0CD197F82530013387F8253097F8C6
:1015A00025303B2B6AD9002387F8253066E097F871
:1015B0002730032B62D197F82430013387F8243089
:1015C00097F824303B2B59D9002387F8243055E075
:1015D00097F82330012B4BD197F82730002B0BD1F4
:1015E00097F8203087F8263097F8213087F8253093
:1015F00097F8223087F8243097F82730012B0BD149
:1016000097F8263087F8203007F12003002219468A
:101610001C4802F0C9FF1EE097F82730022B0BD1BF
:1016200097F8253087F8213007F12003002219466A
:10163000144802F0B9FF0EE097F82730032B0AD1C7
:1016400097F8243087F8223007F12003002219464A
:101650000C4802F0A9FF97F82730013387F82730AC
:1016600097F82730032B09D9002387F8273005E0A6
:1016700097F82330022B01D100F094FA00F064FDBA
:10168000A7E600BFD8000020909A0008989A0008AA
:10169000A89A0008B89A0008C09A0008D09A0008D2
:1016A000FC01002080B586B002AF7860364800F0BB
:1016B00019FF364BB3F9003001331846FEF7A2FE8E
:1016C0004FF00002324BFFF731F802460B4610464E
:1016D0001946FFF713F90346DBB2009319234C2296
:1016E0001121042000F0C4FE00F062FD294B1B68AC
:1016F00007F10F016422184605F0E4F90346012BB7
:101700003ED1FB7B002B16D1204BB3F9003040F2C9
:10171000E632934234DC1D4BB3F900309BB26433A4
:101720009BB21AB2194B1A80184BB3F900201A4B0E
:101730001B681A6424E0FB7B012B1CD1134BB3F90B
:101740000030002B1CDD114BB3F900309BB2643B21
:101750009BB21AB20D4B1A800C4BB3F90030002B20
:1017600002DA0A4B00221A80084BB3F900200A4B18
:101770001B681A6404E0FB7B022B01D100F012FA13
:1017800000F0E2FC92E700BFE09A00081C00002095
:1017900000002440FC0100204401002080B586B0F8
:1017A00002AF786000F05AFE03461A46274B1A70C3
:1017B000274800F097FE254B1B781A4692001344E9
:1017C000DBB20633DBB2009319234C221121042033
:1017D00000F04EFE00F0ECFC1E4B1B6807F10F0101
:1017E0006422184605F06EF90346012B2AD1FB7BD3
:1017F000002B0FD1154B1B78452B23D8134B1B788F
:101800000133DAB2114B1A70104B1B78184600F0F6
:1018100097FA17E0FB7B012B0FD10C4B1B78322B77
:1018200010D90A4B1B78013BDAB2084B1A70074BF0
:101830001B78184600F084FA04E0FB7B022B01D1F0
:1018400000F0B0F900F080FCB2E700BF0302002016
:10185000EC9A0008FC01002080B584B000AF7860ED
:101860000023FB733E4800F03DFE052000F0A0FA87
:10187000FA7B07F10C033B49184607F047FB07F1D9
:101880000C0300222821184600F00AFCFB7B002BE9
:1018900005D101220E21344800F002FC34E0FB7B2C
:1018A000012B05D101220E21304800F0F9FB2BE07D
:1018B000FB7B022B05D101220E212D4800F0F0FB0D
:1018C00022E0FB7B032B05D101220E21294800F0E9
:1018D000E7FB19E0FB7B042B05D101220E212648F2
:1018E00000F0DEFB10E0FB7B052B05D101220E2171
:1018F000224800F0D5FB07E0FB7B062B04D1012238
:101900000E211F4800F0CCFB012000F051FA00F03E
:101910004FFC1C4B1B6807F10E016422184605F0B2
:10192000D1F80346012B18D1BB7B022B02D100F06A
:1019300039F912E0BB7B012B06D1FB7B002B0CD0CD
:10194000FB7B013BFB7308E0BB7B002B05D1FB7BE2
:10195000052B02D8FB7B0133FB7300F0F5FB81E71D
:10196000F89A00088C9A0008009B0008309B000839
:101970006C9B00089C9B0008E49B0008049C0008EA
:10198000349C0008FC01002080B584B000AF786072
:101990000023FB73304800F0A5FDFB7B83F00103BF
:1019A000DBB2002B10D019220C212C4800F056FB82
:1019B000012000F0E7F919223921294800F04EFBF7
:1019C000002000F0DFF912E0FB7B002B0FD001209C
:1019D00000F0D8F919220C21204800F03FFB00202C
:1019E00000F0D0F9192239211D4800F037FB0622FA
:1019F00019212A2000F0ACFC00F0DAFB194B1B681F
:101A000007F10E016422184605F05CF80346012B2D
:101A10001FD1BB7B002B0ED1FB7B002B14BF0123FE
:101A20000023DBB283F00103DBB2FB73FB7B03F02B
:101A30000103FB730DE0BB7B012B05D1FB7B002B6E
:101A400007D001F052FD04E0BB7B022B01D100F076
:101A5000A9F800F079FB9DE7709C0008789C0008CD
:101A60007C9C0008FC01002080B588B002AF786043
:101A7000404B1B78DBB2632B22D93E4B00221A70FD
:101A80003D4B1B780133DAB23B4B1A703A4B1B7853
:101A90003B2B15D9384B00221A70384B1B78013379
:101AA000DAB2364B1A70354B1B783B2B08D9314BC9
:101AB00000221A70304B00221A70304B00221A702C
:101AC0002F4800F00FFD2D4B1B781A462A4B1B7830
:101AD0001946284B1B78DBB207F10C0000930B462C
:101AE000284907F013FA042000F062F907F10C030B
:101AF00002221921184600F0D3FA012000F058F90B
:101B000000F056FB204B1B6807F117010A2218460C
:101B100004F0D8FF0346012B28D1FB7D002B0DD10B
:101B20001A4804F0F6F80346022B03D1174803F0D5
:101B300013FD1BE0154803F0BDFC17E0FB7D012BF6
:101B40000FD1124804F0E5F80346022B0ED0094BE2
:101B500000221A70084B00221A70084B00221A70DB
:101B600004E0FB7D022B01D100F01CF800F0ECFA40
:101B70007EE700BF060200200402002005020020CC
:101B8000809C0008989A0008FC0100208C0100202D
:101B900080B500AF024801F0A2FE00BF80BD00BFCB
:101BA000CC00002080B500AF00F0CEFA00F000FBC2
:101BB000044B1B68184605F0D7FC002005F07EFB9F
:101BC00000BF80BDD801002080B582B000AF786032
:101BD0007B681B680A4A934202D100F0F9FE0BE0D1
:101BE0007B681B68074A934206D1074B1B78DBB220
:101BF0000133DAB2044B1A7000BF0837BD4680BD0E
:101C0000002C0140000400400602002080B400AF18
:101C100072B600BFFEE7000080B582B000AF034699
:101C2000FB71F91D0A230122034803F009FA00BFE2
:101C30000837BD4680BD00BFEC00002080B582B0F3
:101C400000AF0346FB71002210210A4801F0EDFDB0
:101C500000224021074801F0E8FDFB791846FFF714
:101C6000DBFF01224021034801F0DFFD00BF083700
:101C7000BD4680BD0008014080B582B000AF03467C
:101C8000FB71012210210A4801F0CFFD0022402102
:101C9000074801F0CAFDFB791846FFF7BDFF012296
:101CA0004021034801F0C1FD00BF0837BD4680BD9B
:101CB0000008014080B582B000AF0346FB710122ED
:101CC00040211B4801F0B1FD00220121194801F01B
:101CD000ACFD012000F098FE01220121154801F021
:101CE000A4FD0A2000F090FE2120FFF7A7FFFB795A
:101CF00063F07F03DBB21846FFF7A0FF0420FFF775
:101D00009DFF1320FFF79AFF2020FFF797FF0C207D
:101D1000FFF794FF00F018FA00F04AFA064B002291
:101D20001A70064AFB79137000BF0837BD4680BDA4
:101D300000080140000C01400004002001040020C4
:101D400080B582B000AF0346FB7197F90730002BD6
:101D500001DA7F23FB710A4AFB7913702120FFF718
:101D60006DFFFB7963F07F03DBB21846FFF766FF78
:101D70002020FFF763FF00BF0837BD4680BD00BFCE
:101D80000104002080B483B000AF0346FB71FB79EF
:101D9000002B03D0054B01221A7002E0034B0022F6
:101DA0001A7000BF0C37BD4680BC7047000400208D
:101DB00080B483B000AF0346FB712D4AFB791370EA
:101DC0002B4B1B78012B06D12A4B06221A702A4B6B
:101DD00008221A7047E0264B1B78022B06D1254BB0
:101DE00008221A70244B08221A703CE0204B1B7802
:101DF000032B06D11F4B08221A701F4B08221A70A2
:101E000031E01B4B1B78042B06D11A4B09221A70A8
:101E1000194B08221A7026E0154B1B78052B06D1AA
:101E2000144B04221A70144B08221A701BE0104B3A
:101E30001B78062B06D10F4B11221A700E4B202255
:101E40001A7010E00A4B1B78072B06D1094B1122A0
:101E50001A70094B20221A7005E0064B08221A70EE
:101E6000054B08221A7000BF0C37BD4680BC704776
:101E70001E000020020400200304002080B586B06C
:101E800000AF0346FB710B46BB7113467B71BA79F9
:101E9000674B1B78C3F154039A4201DD0223BB71E7
:101EA00000233B61B7E0634B1B78012B0DD1FB791D
:101EB000A3F12002604913465B0013445B00CA187B
:101EC0003B6913441B787B6169E05A4B1B78022BFA
:101ED00009D1FB79203B594ADB001A443B69134482
:101EE0001B787B615BE0534B1B78032B09D1FB799B
:101EF000203B534ADB001A443B6913441B787B6147
:101F00004DE04C4B1B78042B0CD1FB79A3F1200244
:101F10004C491346DB001344CA183B6913441B7831
:101F20007B613CE0434B1B78052B09D1FB79203BBF
:101F3000454A9B001A443B6913441B787B612EE0A1
:101F40003C4B1B78062B0CD1FB79A3F12E023F49A9
:101F500013461B0113443A69134451F823307B6143
:101F60001DE0344B1B78072B0CD1FB79A3F12E021B
:101F7000374913461B0113443A69134451F823307F
:101F80007B610CE0FB79A3F120022B4913465B0037
:101F900013445B00CA183B6913441B787B612D4BCB
:101FA0001B78002B02D07B69DB437B610023FB6045
:101FB00028E00122FB6802FA03F31A467B6913400A
:101FC000002B0ED03B69DAB2BB791344D8B2FB6860
:101FD000DAB27B791344DBB20122194600F014F91E
:101FE0000DE03B69DAB2BB791344D8B2FB68DAB2D0
:101FF0007B791344DBB20022194600F005F9FB6837
:102000000133FB60144B1B781A46FB689342D0DB0C
:102010003B6901333B61064B1B781A463B6993428F
:10202000FFF641AF00BF00BF1837BD4680BD00BFFF
:10203000020400201E000020A09C0008E09E000872
:10204000B8A00008A8A30008BCA5000838A700088D
:10205000ACAA0008000400200304002080B582B070
:1020600000AF78600B46FB701346BB700DE07B68D9
:102070005A1C7A601B78BA78F9781846FFF7FEFE8A
:10208000064B1A78FB781344FB707B681B78002B97
:10209000EDD100BF00BF0837BD4680BD020400205F
:1020A00080B584B000AF78600B46FB701346BB7000
:1020B000BB78002B0DD17868FEF74AF80346DBB2F7
:1020C0001F4A127802FB03F3DBB2C3F15403FB7324
:1020D0002DE0BB78022B0CD17868FEF739F8034667
:1020E000174A127802FB03F3C3F154035B08FB7336
:1020F0001DE0BB78012B1FD10023FB7317E07B6829
:102100005A1C7A601B78FA78F97B1846FFF7B6FEFE
:102110000B4B1A78FB7B1344FB73FB7B532B06D9C9
:102120000023FB73074B1A78FB781344FB707B6822
:102130001B78002BE3D100E000BF1037BD4680BD07
:10214000020400200304002080B483B000AF002309
:102150007B6007E0084A7B68134400221A707B68A2
:1021600001337B607B68B3F5FC7FF3DB00BF00BF0E
:102170000C37BD4680BC70470802002080B582B095
:1021800000AF03460A46FB711346BB71FB7963F04F
:102190007F03DBB21846FFF751FDBB7943F04003E4
:1021A000DBB21846FFF74AFD00BF0837BD4680BDC9
:1021B00080B582B000AF40218020FFF7DFFF002311
:1021C0007B6016E000233B600DE07B68542203FB3C
:1021D00002F23B6813440B4AD35C1846FFF74CFDF0
:1021E0003B6801333B603B68532BEEDD7B6801337A
:1021F0007B607B68052BE5DD00BF00BF0837BD466F
:1022000080BD00BF0802002080B483B000AF034649
:10221000FB710B46BB7113467B71FB79532B43D883
:10222000BB792F2B40D87B79002B1DD0FA79BB7955
:10223000DB08D8B20146542301FB03F313441D4AC3
:10224000D35C5AB2BB7903F00703012101FA03F30F
:102250005BB2134359B2FA79542300FB03F31344DE
:10226000C9B2144AD15420E0FA79BB79DB08D8B25C
:102270000146542301FB03F313440E4AD35C5AB2C4
:10228000BB7903F00703012101FA03F35BB2DB43DF
:102290005BB2134059B2FA79542300FB03F31344A1
:1022A000C9B2044AD15400E000BF0C37BD4680BC1F
:1022B000704700BF0802002080B489B000AFF8600A
:1022C000B9607A60FB68002B3ADBFB68532B37DC84
:1022D000BB68002B34DBBB682F2B31DC0023FB6198
:1022E0002AE0BB68002B00DA0733DB101A465423C0
:1022F00002FB03F3FA681344BB61BB685A4203F064
:10230000070302F0070258BF53427B61BA69FB69B9
:1023100013440E4AD35C5AB201217B6901FA03F3DC
:102320005BB2134359B2BA69FB691344C9B2074A95
:10233000D154FB690133FB61FA697B689A42D0DBB7
:1023400000BF2437BD4680BC704700BF0802002094
:1023500080B586B000AFF860B9607A60FB68002B8A
:102360001EDBFB68532B1BDCBB68002B18DBBB6838
:102370002F2B15DC00237B610EE0FB68D8B2BB6815
:10238000DAB27B69DBB21344DBB201221946FFF7F4
:102390003BFF7B6901337B617A697B689A42ECDDA4
:1023A00000BF1837BD4680BD90B583B000AF04466E
:1023B000084611461A462346FB710346BB710B467D
:1023C0007B7113463B71F879B9797A79FB79D31A25
:1023D0001A46FFF771FFF879B9793A79BB79D31AC0
:1023E0001A46FFF7B5FF7879B9793A79BB79D31AEC
:1023F0001A46FFF7ADFFF87939797A79FB79D31A64
:102400001A46FFF759FF00BF0C37BD4690BD90B587
:1024100085B000AF0446084611461A462346FB71B4
:102420000346BB710B467B7113463B71BB79FB7353
:1024300008E0FB79F97B7A791846FFF73DFFFB7BD3
:102440000133FB73FA7BB9793B790B449A42F0DD97
:1024500000BF00BF1437BD4690BD000080B400AF80
:10246000024B1B781846BD4680BC70470104002013
:1024700090B583B000AF0446084611461A4623467D
:10248000FB710346BB710B467B7113463B71FA79B6
:102490007B791344DCB2BA793B791344DBB2B97966
:1024A000F8792246FFF780FFFB790233D8B2BB7977
:1024B0000233D9B23B7E7A79033A02FB03F3084A2E
:1024C00082FB03425211DB17D31ADAB23B79043B89
:1024D000DBB2FFF79CFF00BF0C37BD4690BD00BFCD
:1024E0001F85EB5180B582B000AF786054220C217B
:1024F0000020FFF7E1FE022202217868FFF7D0FDFD
:1025000000BF0837BD4680BD90B583B000AF04461C
:10251000084611461A462346FB710346BB710B461B
:102520007B7113463B71FB79B9797A791846FFF7CD
:102530000FFFFB79013BD8B27A793B7EB2FBF3F314
:10254000DBB23A7902FB03F3DAB2BB791344DBB2B4
:102550000233D9B204230322FFF759FF00BF0C371F
:10256000BD4690BD80B584B000AF184B9B69174A3B
:1025700043F001039361154B9B6903F00103BB60BA
:10258000BB68124BDB69114A43F08053D3610F4B98
:10259000DB6903F080537B607B6800220F216FF0C2
:1025A000010000F078FF0A4B5B68FB60FB6823F0DA
:1025B000E063FB60FB6843F00073FB60044AFB6868
:1025C000536000BF1037BD4680BD00BF0010024001
:1025D0000000014080B485B000AF78607B681B6864
:1025E000094A93420BD1094B9B69084A43F4007393
:1025F0009361064B9B6903F40073FB60FB6800BFAB
:102600001437BD4680BC70470024014000100240D2
:1026100080B584B000AF78607B681B680B4A93423A
:1026200010D101F06BF90A4BDB69094A43F00063F2
:10263000D361074BDB6903F00063FB60FB68054B6C
:1026400001221A6000BF1037BD4680BD002800403F
:10265000001002403C04424280B588B000AF786070
:1026600007F1100300221A605A609A60DA607B68F2
:102670001B68154A934223D1144B9B69134A43F4B8
:1026800080539361114B9B6903F48053FB60FB689B
:102690000E4B9B690D4A43F0040393610B4B9B69FE
:1026A00003F00403BB60BB68A0233B6102237B6192
:1026B0000323FB6107F110031946054800F01AFFD8
:1026C00000BF2037BD4680BD0030014000100240F1
:1026D0000008014080B584B000AF78607B681B685B
:1026E000B3F1804F0CD1154BDB69144A43F0010361
:1026F000D361124BDB6903F00103FB60FB6818E058
:102700007B681B680E4A934213D10C4BDB690B4A62
:1027100043F00203D361094BDB6903F00203BB60A2
:10272000BB68002205211D2000F0B5FE1D2000F031
:10273000CEFE00BF1037BD4680BD00BF0010024076
:102740000004004080B588B000AF786007F1100346
:1027500000221A605A609A60DA607B681B68B3F1E5
:10276000804F17D10D4B9B690C4A43F004039361D2
:102770000A4B9B6903F00403FB60FB6808233B6181
:1027800002237B610223FB6107F110031946044811
:1027900000F0B0FE00BF2037BD4680BD00100240F3
:1027A0000008014080B58CB000AF78600023BB62A8
:1027B00000237B62002387F82F302E4B9B692D4A24
:1027C00043F4006393612B4B9B6903F40063BB608C
:1027D000BB6807F10C0207F110031146184601F01F
:1027E00083FC01F06DFCB862BB6A234AA2FB0323A1
:1027F0009B0C013B7B62214B214A1A601F4B40F22C
:10280000E732DA601D4A7B6A53601C4B00221A6172
:102810001A4B00229A60194B00229A61174802F065
:10282000F9FD034687F82F3097F82F30002B1BD186
:10283000124802F03FFE034687F82F3097F82F30FA
:10284000002B11D1192000F042FE7B680F2B08D815
:1028500000227968192000F01EFE0A4A7B68136086
:1028600002E0012387F82F3097F82F3018463037D1
:10287000BD4680BD0010024083DE1B4304040020DF
:10288000002C01402400002080B500AF01F05CFC6A
:10289000FEE780B400AFFEE780B400AFFEE780B48F
:1028A00000AFFEE780B400AFFEE780B400AF00BF2A
:1028B000BD4680BC7047000080B500AF024802F002
:1028C00073FF00BF80BD00BF0404002080B500AFCF
:1028D000024802F069FF00BF80BD00BF8C010020EC
:1028E00080B586B000AF7860144A154BD31A7B616F
:1028F0007B693B61134B1B68002B02D1114B124AC1
:102900001A60104B1A687B6813443A699A4207D2DE
:1029100006F08AFB03460C221A604FF0FF3309E0F1
:10292000084B1B68FB60074B1A687B681344054A19
:102930001360FB6818461837BD4680BD0050002064
:10294000000400004C040020781F002080B400AF79
:1029500000BFBD4680BC7047FFF7F8FF0B480C492D
:102960000C4A002302E0D458C4500433C4188C42EB
:10297000F9D3094A094C002301E013600432A24252
:10298000FBD306F057FBFDF7D9FF7047000000208E
:10299000800000209CAE000880000020781F0020EE
:1029A000FEE7000080B500AF084B1B68074A43F004
:1029B00010031360032000F063FD0F20FFF7F2FE09
:1029C000FFF7D0FD0023184680BD00BF0020024065
:1029D00080B400AF054B1B781A46054B1B681344A7
:1029E000034A136000BFBD4680BC7047280000202A
:1029F0005004002080B400AF024B1B681846BD464F
:102A000080BC70475004002080B584B000AF78606F
:102A1000FFF7F0FFB8607B68FB60FB68B3F1FF3F36
:102A200005D00A4B1B781A46FB681344FB6000BFB5
:102A3000FFF7E0FF0246BB68D31AFA689A42F7D85C
:102A400000BF00BF1037BD4680BD00BF280000207A
:102A500080B586B000AF78600023FB7500233B6132
:102A60000023BB600023FB607B68002B01D10123A6
:102A7000BEE07B689B68002B7B689B6A002B09D1BA
:102A80007B680022DA627B68002283F82420786861
:102A9000FFF7A0FD786800F0F1FB0346FB757B684B
:102AA0009B6A03F01003002B40F09980FB7D002B04
:102AB00040F095807B689B6A23F4885323F00203DF
:102AC00043F002027B689A627B685A687B68DB6924
:102AD0001A437B681B7B5B001343BA681343BB60DC
:102AE0007B689B68B3F5807F03D07B689B68012B74
:102AF00002D14FF4807300E000233A6913433B6135
:102B00007B681B7D012B19D17B681B7B002B09D1B6
:102B10007B689B69013B5A033B69134343F40063A1
:102B20003B610BE07B689B6A43F020027B689A6202
:102B30007B68DB6A43F001027B68DA627B681B68B2
:102B40005B6823F469417B681B683A690A435A60F1
:102B50007B681B689A68284B13407A681268B968CA
:102B60000B4393607B689B68B3F5807F03D07B68E1
:102B70009B68012B04D17B681B69013B1B05FB6033
:102B80007B681B68DB6A23F470017B681B68FA684A
:102B90000A43DA627B681B689A68184B1340BA686C
:102BA0009A420BD17B680022DA627B689B6A23F031
:102BB000030343F001027B689A6218E07B689B6A1A
:102BC00023F0120343F010027B689A627B68DB6A91
:102BD00043F001027B68DA620123FB7507E07B6842
:102BE0009B6A43F010027B689A620123FB75FB7DB0
:102BF00018461837BD4680BDFDF7E1FFFE0E1FFFEA
:102C000080B584B000AF78600023FB737B6893F8D5
:102C10002430012B01D1022398E07B68012283F844
:102C20002420786800F0D0FA0346FB73FB7B002B6E
:102C300040F087807B689B6A23F4407323F0010394
:102C400043F480727B689A627B681B68414A9342B6
:102C500005D1414B5B6803F47023002B15D17B68D1
:102C60009B6A23F480127B689A627B681B685B68AE
:102C700003F48063002B26D07B689B6A23F44053C7
:102C800043F480527B689A621DE07B689B6A43F440
:102C900080127B689A627B681B682F4A934204D03B
:102CA0007B681B682B4A93420DD12B4B5B6803F466
:102CB0008063002B07D07B689B6A23F4405343F466
:102CC00080527B689A627B689B6A03F48053002B76
:102CD00006D07B68DB6A23F006027B68DA6202E0DA
:102CE0007B680022DA627B68002283F824207B68FC
:102CF0001B686FF002021A607B681B689B6803F414
:102D00006023B3F5602F13D17B681B68114A93428F
:102D100005D1114B5B6803F47023002B08D17B684D
:102D20001B689A687B681B6842F4A0029A600CE0FA
:102D30007B681B689A687B681B6842F480129A6003
:102D400003E07B68002283F82420FB7B18461037C1
:102D5000BD4680BD002801400024014080B584B0FC
:102D600000AF78600023FB737B6893F82430012B5D
:102D700001D102231AE07B68012283F824207868BD
:102D800000F07CFA0346FB73FB7B002B09D17B68C8
:102D90009B6A23F4885323F0010343F001027B680C
:102DA0009A627B68002283F82420FB7B1846103748
:102DB000BD4680BD90B587B000AF78603960002314
:102DC0007B610023FB6000233B61FFF713FE78610A
:102DD0007B681B689B6803F48073002B0BD07B68B7
:102DE0009B6A43F020027B689A627B68002283F82A
:102DF00024200123D3E07B681B685B6803F48073A5
:102E0000002B31D17B681B68DB6A03F47003002B55
:102E10002AD121E03B68B3F1FF3F1DD03B68002B76
:102E200007D0FFF7E7FD02467B69D31A3A689A425A
:102E300012D27B681B681B6803F00203002B0BD1C6
:102E40007B689B6A43F004027B689A627B6800227D
:102E500083F824200323A2E07B681B681B6803F02F
:102E60000203002BD6D070E04F4B1C68022001F00B
:102E700059FA0346B4FBF3F27B681B6819694B4BA4
:102E80000B40002B18D17B681B68D968484B0B405E
:102E9000002B11D17B681B681969464B0B40002B36
:102EA00008D17B681B68D968434B0B40002B01D1CC
:102EB000142320E029231EE07B681B6819693D4B21
:102EC0000B40002B06D17B681B68D9683A4B0B403E
:102ED000002B0DD07B681B681969384B0B40002B09
:102EE00008D17B681B68D968344B0B40002B01D19B
:102EF000542300E0FC2302FB03F33B6121E03B6829
:102F0000B3F1FF3F1AD03B68002B07D0FFF772FDEB
:102F100002467B69D31A3A689A420FD2FB683A6933
:102F20009A420BD97B689B6A43F004027B689A62E1
:102F30007B68002283F82420032330E0FB68013300
:102F4000FB60FB683A699A42D9D87B681B686FF0CE
:102F500012021A607B689B6A43F400727B689A6273
:102F60007B681B689B6803F46023B3F5602F15D161
:102F70007B681B7B002B11D17B689B6A23F48072DA
:102F80007B689A627B689B6A03F48053002B05D1AF
:102F90007B689B6A43F001027B689A6200231846B3
:102FA0001C37BD4690BD00BF20000020244992245C
:102FB0002449920092244912922449004992240003
:102FC00080B483B000AF78607B681B68DB6C184608
:102FD0000C37BD4680BC704780B485B000AF7860C8
:102FE00039600023FB730023BB607B6893F82430B7
:102FF000012B01D10223DCE07B68012283F824202D
:103000003B685B68062B1CD87B681B68596B3B6868
:103010005A6813469B001344053B1F2202FA03F330
:10302000DB4319403B6818683B685A6813469B00AD
:103030001344053B00FA03F27B681B680A435A639A
:103040003CE03B685B680C2B1CD87B681B68196BE9
:103050003B685A6813469B001344233B1F2202FA25
:1030600003F3DB4319403B6818683B685A68134612
:103070009B001344233B00FA03F27B681B680A435E
:103080001A631BE07B681B68D96A3B685A68134661
:103090009B001344413B1F2202FA03F3DB43194018
:1030A0003B6818683B685A6813469B001344413BD1
:1030B00000FA03F27B681B680A43DA623B681B680C
:1030C000092B1CD97B681B68D9683B681A681346B2
:1030D0005B0013441E3B072202FA03F3DB43194053
:1030E0003B6898683B681A6813465B0013441E3BB4
:1030F00000FA03F27B681B680A43DA6019E07B6818
:103100001B6819693B681A6813465B001344072261
:1031100002FA03F3DB4319403B6898683B681A687E
:1031200013465B00134400FA03F27B681B680A43F2
:103130001A613B681B68102B03D03B681B68112B7E
:1031400032D17B681B681D4A934225D17B681B687E
:103150009B6803F40003002B26D17B681B689A68E8
:103160007B681B6842F400029A603B681B68102B66
:103170001AD1134B1B68134AA2FB03239A0C134664
:103180009B0013445B00BB6002E0BB68013BBB607B
:10319000BB68002BF9D107E07B689B6A43F02002F3
:1031A0007B689A620123FB737B68002283F82420EA
:1031B000FB7B18461437BD4680BC70470024014095
:1031C0002000002083DE1B4380B584B000AF786010
:1031D0000023FB600023BB607B681B689B6803F0D7
:1031E0000103012B40D07B681B689A687B681B68D1
:1031F00042F001029A601F4B1B681F4AA2FB032387
:103200009B0CBB6002E0BB68013BBB60BB68002B52
:10321000F9D1FFF7EFFBF8601FE0FFF7EBFB024689
:10322000FB68D31A022B18D97B681B689B6803F0D4
:103230000103012B11D07B689B6A43F010027B686D
:103240009A627B68DB6A43F001027B68DA627B6822
:10325000002283F82420012307E07B681B689B6819
:1032600003F00103012BD8D1002318461037BD46C7
:1032700080BD00BF2000002083DE1B4380B584B0EA
:1032800000AF78600023FB607B681B689B6803F0DD
:103290000103012B2ED17B681B689A687B681B6831
:1032A00022F001029A60FFF7A5FBF8601BE0FFF730
:1032B000A1FB0246FB68D31A022B14D97B681B685A
:1032C0009B6803F00103012B0DD17B689B6A43F0DF
:1032D00010027B689A627B68DB6A43F001027B68BC
:1032E000DA62012307E07B681B689B6803F0010337
:1032F000012BDCD0002318461037BD4680BD0000EE
:1033000080B485B000AF78607B6803F00703FB6092
:103310000C4BDB68BB60BA684FF6FF031340BB6021
:10332000FB681A02BB68134343F0BF6343F40033E6
:10333000BB60044ABB68D36000BF1437BD4680BC85
:10334000704700BF00ED00E080B400AF044BDB68C5
:103350001B0A03F007031846BD4680BC704700BF38
:1033600000ED00E080B483B000AF0346FB7197F935
:103370000730002B0BDBFB7903F01F02064997F99E
:1033800007305B09012000FA02F241F8232000BF58
:103390000C37BD4680BC704700E100E080B483B0CC
:1033A00000AF03463960FB7197F90730002B0ADB49
:1033B0003B68DAB20C4997F907301201D2B20B44DC
:1033C00083F800230AE03B68DAB20849FB7903F08E
:1033D0000F03043B1201D2B20B441A7600BF0C3724
:1033E000BD4680BC704700BF00E100E000ED00E09A
:1033F00080B489B000AFF860B9607A60FB6803F010
:103400000703FB61FB69C3F10703042B28BF0423F7
:10341000BB61FB690433062B02D9FB69033B00E067
:1034200000237B614FF0FF32BB6902FA03F3DA43FA
:10343000BB681A407B699A404FF0FF317B6901FA03
:1034400003F3D9437B680B40134318462437BD462A
:1034500080BC704780B400AFBFF34F8F00BF064BF6
:10346000DB6803F4E0620449044B1343CB60BFF311
:103470004F8F00BF00BFFDE700ED00E00400FA053C
:1034800080B582B000AF78607868FFF739FF00BF81
:103490000837BD4680BD80B586B000AF0346B96031
:1034A0007A60FB7300237B61FFF74EFF78617A68D7
:1034B000B9687869FFF79CFF024697F90F3011460B
:1034C0001846FFF76BFF00BF1837BD4680BD80B5BB
:1034D00082B000AF0346FB7197F907301846FFF73B
:1034E00041FF00BF0837BD4680BD80B500AFFFF784
:1034F000B1FF000080B48BB000AF7860396000236A
:103500007B6200233B6269E101227B6A02FA03F3DA
:10351000FB613B681B68FA691340BB61BA69FB69D0
:103520009A4240F058813B685B689A4A93425ED069
:10353000984A934275D8984A934258D0964A9342F3
:103540006FD8964A934252D0944A934269D8944A8B
:1035500093424CD0924A934263D8924A934246D0C7
:10356000904A93425DD8122B2AD8122B59D801A227
:1035700052F823F0EF350008C9350008DB350008A4
:103580001D360008233600082336000823360008BD
:1035900023360008233600082336000823360008A7
:1035A0002336000823360008233600082336000897
:1035B0002336000823360008D1350008E535000819
:1035C000794A934213D02CE03B68DB683B6229E0E8
:1035D0003B68DB6804333B6224E03B68DB6808330C
:1035E0003B621FE03B68DB680C333B621AE03B68E0
:1035F0009B68002B02D104233B6213E03B689B686D
:10360000012B05D108233B627B68FA691A6109E046
:1036100008233B627B68FA695A6103E000233B623E
:1036200000E000BFBB69FF2B01D87B6801E07B682D
:1036300004337B61BB69FF2B02D87B6A9B0002E0ED
:103640007B6A083B9B003B617B691A680F213B69E1
:1036500001FA03F3DB431A40396A3B6901FA03F3C9
:103660001A437B691A603B685B6803F08053002B48
:1036700000F0B1804D4B9B694C4A43F001039361CC
:103680004A4B9B6903F00103BB60BB68484A7B6AF5
:103690009B08023352F82330FB607B6A03F003037C
:1036A0009B000F2202FA03F3DB43FA681340FB602E
:1036B0007B68404A934213D07B683F4A93420DD0C7
:1036C0007B683E4A934207D07B683D4A934201D1D2
:1036D000032306E0042304E0022302E0012300E0C8
:1036E00000237A6A02F0030292009340FA681343BF
:1036F000FB602F497B6A9B080233FA6841F823205C
:103700003B685B6803F48013002B06D02D4B9A684E
:103710002C49BB6913438B6006E02A4B9A68BB694E
:10372000DB43284913408B603B685B6803F400135C
:10373000002B06D0234BDA682249BB691343CB60C8
:1037400006E0204BDA68BB69DB431E491340CB60BF
:103750003B685B6803F40033002B06D0194B5A68B2
:103760001849BB6913434B6006E0164B5A68BB69A6
:10377000DB43144913404B603B685B6803F48033C0
:10378000002B21D00F4B1A680E49BB6913430B6005
:1037900021E000BF000032100000311000002210B4
:1037A0000000211000001210000011100010024053
:1037B0000000014000080140000C014000100140E1
:1037C00000140140000401400B4B1A68BB69DB4345
:1037D000094913400B607B6A01337B623B681A68BE
:1037E0007B6A22FA03F3002B7FF48EAE00BF00BF8A
:1037F0002C37BD4680BC70470004014080B485B0C2
:1038000000AF78600B467B807B689A687B881340AA
:10381000002B02D00123FB7301E00023FB73FB7B31
:1038200018461437BD4680BC704780B483B000AFE3
:1038300078600B467B8013467B707B78002B03D02F
:103840007A887B681A6103E07B881A047B681A61B6
:1038500000BF0C37BD4680BC704780B584B000AF58
:1038600078607B68002B01D1012334E07B681B6802
:103870004CF6CC421A607B681B6845F255521A60C0
:103880007B681B687A6852685A607B681B687A6834
:1038900092689A60FFF7AEF8F8600FE0FFF7AAF8B9
:1038A0000246FB68D31A272B08D97B681B68DB68A4
:1038B00003F00303002B01D003230CE07B681B689B
:1038C000DB6803F00303002BE8D17B681B684AF632
:1038D000AA221A60002318461037BD4680BD80B466
:1038E00083B000AF78607B681B684AF6AA221A6032
:1038F000002318460C37BD4680BC704780B400AF2B
:10390000034B01221A6000BFBD4680BC704700BF58
:1039100020000E4280B586B000AF78607B68002B37
:1039200001D1012372E27B681B6803F00103002BC5
:1039300000F08780924B5B6803F00C03042B0CD0E3
:103940008F4B5B6803F00C03082B12D18C4B5B6828
:1039500003F48033B3F5803F0BD1894B1B6803F42C
:103960000033002B6CD07B685B68002B68D101238F
:103970004CE27B685B68B3F5803F06D1804B1B68E7
:103980007F4A43F4803313602EE07B685B68002B32
:103990000CD17B4B1B687A4A23F480331360784B3D
:1039A0001B68774A23F4802313601DE07B685B6803
:1039B000B3F5A02F0CD1724B1B68714A43F48023DE
:1039C00013606F4B1B686E4A43F4803313600BE047
:1039D0006B4B1B686A4A23F480331360684B1B6887
:1039E000674A23F4802313607B685B68002B13D045
:1039F000FFF700F8386108E0FEF7FCFF02463B697C
:103A0000D31A642B01D9032300E25D4B1B6803F436
:103A10000033002BF0D014E0FEF7ECFF386108E033
:103A2000FEF7E8FF02463B69D31A642B01D9032352
:103A3000ECE1534B1B6803F40033002BF0D100E0A2
:103A400000BF7B681B6803F00203002B63D04C4B64
:103A50005B6803F00C03002B0BD0494B5B6803F051
:103A60000C03082B1CD1464B5B6803F48033002BFE
:103A700016D1434B1B6803F00203002B05D07B6873
:103A80001B69012B01D00123C0E13D4B1B6823F0D2
:103A9000F8027B685B69DB00394913430B603AE04D
:103AA0007B681B69002B20D0364B01221A60FEF781
:103AB000A1FF386108E0FEF79DFF02463B69D31A7B
:103AC000022B01D90323A1E12D4B1B6803F0020354
:103AD000002BF0D02A4B1B6823F0F8027B685B694F
:103AE000DB00274913430B6015E0264B00221A60C8
:103AF000FEF780FF386108E0FEF77CFF02463B6975
:103B0000D31A022B01D9032380E11D4B1B6803F05C
:103B10000203002BF0D17B681B6803F00803002B25
:103B20003AD07B689B69002B19D0174B01221A6091
:103B3000FEF760FF386108E0FEF75CFF02463B6974
:103B4000D31A022B01D9032360E10D4B5B6A03F00A
:103B50000203002BF0D0012000F00AFB1CE00A4B0E
:103B600000221A60FEF746FF38610FE0FEF742FFC1
:103B700002463B69D31A022B08D9032346E100BF52
:103B8000001002400000424280044242924B5B6AB5
:103B900003F00203002BE9D17B681B6803F00403E8
:103BA000002B00F0A6800023FB758B4BDB6903F034
:103BB0008053002B0DD1884BDB69874A43F080533B
:103BC000D361854BDB6903F08053BB60BB68012385
:103BD000FB75824B1B6803F48073002B18D17F4B5D
:103BE0001B687E4A43F480731360FEF703FF38615D
:103BF00008E0FEF7FFFE02463B69D31A642B01D9A9
:103C0000032303E1754B1B6803F48073002BF0D092
:103C10007B68DB68012B06D16F4B1B6A6E4A43F051
:103C2000010313622DE07B68DB68002B0CD16A4B2B
:103C30001B6A694A23F001031362674B1B6A664AD9
:103C400023F0040313621CE07B68DB68052B0CD1B6
:103C5000614B1B6A604A43F0040313625E4B1B6AAC
:103C60005D4A43F0010313620BE05B4B1B6A5A4A47
:103C700023F001031362584B1B6A574A23F00403D5
:103C800013627B68DB68002B15D0FEF7B3FE38614A
:103C90000AE0FEF7AFFE02463B69D31A41F28832D2
:103CA000934201D90323B1E04B4B1B6A03F002039B
:103CB000002BEED014E0FEF79DFE38610AE0FEF71F
:103CC00099FE02463B69D31A41F28832934201D9E8
:103CD00003239BE0404B1B6A03F00203002BEED151
:103CE000FB7D012B05D13C4BDB693B4A23F0805324
:103CF000D3617B68DB69002B00F08780364B5B6803
:103D000003F00C03082B61D07B68DB69022B46D1E2
:103D1000334B00221A60FEF76DFE386108E0FEF7B3
:103D200069FE02463B69D31A022B01D903236DE0D9
:103D3000294B1B6803F00073002BF0D17B681B6AD2
:103D4000B3F5803F08D1244B5B6823F400327B68D5
:103D50009B68214913434B601F4B5B6823F474122B
:103D60007B68196A7B685B6A0B431B4913434B6092
:103D70001B4B01221A60FEF73DFE386108E0FEF79A
:103D800039FE02463B69D31A022B01D903233DE0D9
:103D9000114B1B6803F00073002BF0D035E0104B83
:103DA00000221A60FEF726FE386108E0FEF722FEC8
:103DB00002463B69D31A022B01D9032326E0064BA6
:103DC0001B6803F00073002BF0D11EE07B68DB69F9
:103DD000012B07D1012319E00010024000700040C0
:103DE000600042420B4B5B68FB60FB6803F480326F
:103DF0007B681B6A9A4206D1FB6803F470127B68E9
:103E00005B6A9A4201D0012300E00023184618376C
:103E1000BD4680BD0010024080B584B000AF786020
:103E200039607B68002B01D10123D0E06A4B1B680D
:103E300003F007033A689A4210D9674B1B6823F0D6
:103E4000070265493B6813430B60634B1B6803F033
:103E500007033A689A4201D00123B8E07B681B68E7
:103E600003F00203002B20D07B681B6803F00403DF
:103E7000002B05D0594B5B68584A43F4E06353600C
:103E80007B681B6803F00803002B05D0534B5B686D
:103E9000524A43F460535360504B5B6823F0F00286
:103EA0007B689B684D4913434B607B681B6803F03C
:103EB0000103002B40D07B685B68012B07D1474B87
:103EC0001B6803F40033002B15D101237FE07B68CE
:103ED0005B68022B07D1414B1B6803F00073002B7A
:103EE00009D1012373E03D4B1B6803F00203002B53
:103EF00001D101236BE0394B5B6823F003027B683F
:103F00005B68364913434B60FEF774FDF8600AE0C6
:103F1000FEF770FD0246FB68D31A41F288329342E5
:103F200001D9032353E02D4B5B6803F00C027B683F
:103F30005B689B009A42EBD1274B1B6803F0070399
:103F40003A689A4210D2244B1B6823F00702224998
:103F50003B6813430B60204B1B6803F007033A6870
:103F60009A4201D0012332E07B681B6803F004030E
:103F7000002B08D0194B5B6823F4E0627B68DB6898
:103F8000164913434B607B681B6803F00803002B42
:103F900009D0124B5B6823F460527B681B69DB001D
:103FA0000E4913434B6000F02DF802460B4B5B6843
:103FB0001B0903F00F030A49CB5C22FA03F3094AF9
:103FC0001360094B1B681846FEF7ECFB00231846EC
:103FD0001037BD4680BD00BF0020024000100240E7
:103FE00020AE0008200000202400002080B400AF94
:103FF000034B01221A6000BFBD4680BC704700BF62
:104000004C00424280B487B000AF0023FB60002325
:10401000BB6000237B6100237B6000233B611E4B60
:104020005B68FB60FB6803F00C03042B02D0082BD9
:1040300003D027E0194B3B6127E0FB689B0C03F0A2
:104040000F03174AD35C7B60FB6803F48033002BBB
:1040500010D0114B5B685B0C03F00103114AD35C79
:10406000BB607B680D4A03FB02F2BB68B2FBF3F353
:104070007B6104E07B680C4A02FB03F37B617B6994
:104080003B6102E0054B3B6100BF3B6918461C37B2
:10409000BD4680BC704700BF0010024000127A008D
:1040A00038AE000848AE000800093D0080B400AFFB
:1040B000024B1B681846BD4680BC7047200000209C
:1040C00080B500AFFFF7F2FF0246054B5B68DB0AE5
:1040D00003F007030349CB5C22FA03F3184680BDC3
:1040E0000010024030AE000880B483B000AF7860AA
:1040F00039607B680F221A60114B5B6803F0030282
:104100007B685A600E4B5B6803F0F0027B689A6034
:104110000B4B5B6803F4E0627B68DA60084B5B681A
:10412000DB0803F4E0627B681A61064B1B6803F04E
:1041300007023B681A6000BF0C37BD4680BC704761
:10414000001002400020024080B500AF064B9B6883
:1041500003F08003802B04D100F028F8034B802269
:104160001A7000BF80BD00BF001002400A1002405C
:1041700080B485B000AF78600A4B1B680A4AA2FB86
:1041800003235B0A7A6802FB03F3FB6000BFFB6852
:104190005A1EFA60002BF9D100BF00BF1437BD468C
:1041A00080BC704720000020D34D621080B400AF67
:1041B00000BFBD4680BC704780B586B000AF786058
:1041C00000233B610023FB607B681B6803F0010355
:1041D000002B7DD00023FB754F4BDB6903F0805330
:1041E000002B0DD14C4BDB694B4A43F08053D3611C
:1041F000494BDB6903F08053BB60BB680123FB754F
:10420000464B1B6803F48073002B18D1434B1B688B
:10421000424A43F480731360FEF7ECFB386108E018
:10422000FEF7E8FB02463B69D31A642B01D903234E
:104230006DE03A4B1B6803F48073002BF0D0364BD3
:104240001B6A03F44073FB60FB68002B2ED07B6875
:104250005B6803F44073FA689A4227D02E4B1B6ABE
:1042600023F44073FB602E4B01221A602C4B00227A
:104270001A60294AFB681362FB6803F00103002BF4
:1042800014D0FEF7B7FB38610AE0FEF7B3FB024635
:104290003B69D31A41F28832934201D9032336E0B5
:1042A0001D4B1B6A03F00203002BEED01A4B1B6A56
:1042B00023F440727B685B68174913430B62FB7DF4
:1042C000012B05D1144BDB69134A23F08053D361D2
:1042D0007B681B6803F00203002B08D00E4B5B6861
:1042E00023F440427B689B680B4913434B607B6817
:1042F0001B6803F01003002B08D0074B5B6823F406
:1043000080027B68DB68044913434B600023184636
:104310001837BD4680BD00BF00100240007000404D
:104320004004424280B588B000AF786000237B61D2
:104330000023FB6100233B610023FB600023BB6182
:104340007B68102B0AD07B68102B00F28A807B6878
:10435000012B45D07B68022B75D082E0464B5B6811
:10436000FB60454B1B6803F08073002B7BD0FB6820
:104370009B0C03F00F03414AD35C3B61FB6803F4E1
:104380008033002B15D03C4B5B685B0C03F00103C2
:104390003B4AD35C7B61FB6803F48033002B0DD078
:1043A000384A7B69B2FBF3F23B6902FB03F3FB6122
:1043B00004E03B69344A02FB03F3FB612E4B5B686C
:1043C00003F48003B3F5800F02D1FB69BB614AE0BF
:1043D000FB695B002D4AA2FB03235B08BB6142E043
:1043E000254B1B6AFB60FB6803F44073B3F5807FC9
:1043F00008D1FB6803F00203002B03D04FF4004305
:10440000BB611FE0FB6803F44073B3F5007F09D183
:10441000194B5B6A03F00203002B03D049F64043BB
:10442000BB610FE0FB6803F44073B3F5407F1CD120
:10443000114B1B6803F40033002B16D04FF22443BA
:10444000BB6112E011E0FFF73BFE02460A4B5B68DE
:104450009B0B03F0030301335B00B2FBF3F3BB617F
:1044600004E000BF02E000BF00E000BFBB691846E7
:104470002037BD4680BD00BF001002404CAE000892
:104480005CAE000800127A0000093D00ABAAAAAA9F
:1044900080B584B000AF78600023FB607B68002BA0
:1044A00001D101237AE07B685B7CDBB2002B05D174
:1044B0007B6800221A747868FEF7AAF87B680222EB
:1044C0005A74786800F096FA0346002B04D07B6893
:1044D00004225A74012361E0786800F04FFB034620
:1044E000002B04D07B6804225A74012356E07B68B9
:1044F0001B685A687B681B6822F007025A607B6859
:104500009B68002B05D0274B1B6B264A23F0010329
:104510001363244BDB6A23F460727B689B68214938
:104520001343CB627B685B68B3F1FF3F03D07B68CA
:104530005B68FB600EE00120FFF7F4FEF860FB68AB
:10454000002B04D17B6804225A74012326E0FB6807
:10455000013BFB60FB681A0C7B681B6802F00F02D2
:104560009A607B681B68FA6892B2DA60786800F03B
:104570002DFB0346002B04D07B6804225A740123D0
:104580000CE07B680022DA737B6801225A737B6837
:1045900001229A737B6801225A740023184610374F
:1045A000BD4680BD006C004090B587B000AFF8609C
:1045B000B9607A6000237B6100233B61FB68002BBC
:1045C00002D0BB68002B01D1012380E0FB681B7C7B
:1045D000012B01D102237AE0FB6801221A74FB68E7
:1045E00002225A747B68002B13D1BB681B781A46D1
:1045F0004FF4616303FB02F2BB685B7819460B461C
:104600001B015B1A9B001344BA68927813447B61C8
:104610001EE0BB681B78184600F01DFB03461A46D7
:104620004FF4616303FB02F4BB685B78184600F04B
:1046300012FB03461A4613461B019B1A9B001C449F
:10464000BB689B78184600F006FB034623447B6159
:104650007969F86800F02BFA0346002B07D0FB6855
:1046600004225A74FB6800221A7401232FE0FB68AD
:104670001B685A68FB681B6822F005025A60F868DC
:1046800000F03CFA38613B69B3F1FF3F18D03A695A
:104690007B699A4214D23B6903F5A83303F5C073D2
:1046A0003B613969F86800F042FA0346002B07D0F5
:1046B000FB6804225A74FB6800221A74012306E086
:1046C000FB6801225A74FB6800221A740023184602
:1046D0001C37BD4690BD000080B588B000AFF860C3
:1046E000B9607A600023BB610023FB6100237B611A
:1046F00000233B61FB68002B02D0BB68002B01D17B
:104700000123B5E0FB681B685B6803F00403002B22
:1047100001D00123ACE0F86800F099F9B861BB69F9
:10472000554AA2FB0323DB0A3B61BA69524BA3FB48
:104730000213DB0A4FF4616101FB03F3D31A4F4A02
:10474000A2FB03235B09DAB2BB685A70BB694A4A11
:10475000A2FB0312D20A4FF4616101FB02F29A1A22
:10476000464BA3FB021359090B461B015B1A9B0026
:10477000D11ACAB2BB689A703B69172B55D93B69ED
:104780003F4AA2FB03231B097B6139693C4BA3FB16
:1047900001231A0913465B001344DB00CA1AD2B284
:1047A000BB681A70F86800F0A9F9F861FB69B3F109
:1047B000FF3F08D0FA69BB699A4204D9FA69BB691C
:1047C000D31AFB6102E04FF0FF33FB617B692D4A96
:1047D00002FB03F3BA69D31ABB61B969F86800F048
:1047E00066F90346002B01D0012341E0FB69B3F1D8
:1047F000FF3F0CD0FA69BB691344FB61F969F868A3
:1048000000F095F90346002B0AD0012330E0F96946
:10481000F86800F08CF90346002B01D0012327E053
:104820007969F86800F034FA03E03B69DAB2BB68F2
:104830001A707B68002B1AD0BB681B78184600F0F2
:10484000EDF903461A46BB681A70BB685B781846D8
:1048500000F0E4F903461A46BB685A70BB689B78BF
:10486000184600F0DBF903461A46BB689A7000232D
:1048700018462037BD4680BDC5B3A2918988888877
:10488000ABAAAAAA8051010080B588B000AFF86039
:10489000B9607A600023FB610023BB6100237B6168
:1048A000FB68002B02D0BB68002B01D1012397E0ED
:1048B000FB681B7C012B01D1022391E0FB680122E4
:1048C0001A74FB6802225A747B68002B0CD1BB68F7
:1048D000DA78FB68DA73BB685A78FB685A73BB688E
:1048E0009A78FB689A731AE0BB68DB78184600F088
:1048F000B2F903461A46FB68DA73BB685B78184660
:1049000000F0A9F903461A46FB685A73BB689B7806
:10491000184600F0A0F903461A46FB689A73FB6834
:10492000DB7B1846FB68597BFB689B7B1A4600F0D3
:104930008BFA03461A46FB681A73FB681A7BBB683E
:104940001A70F86800F083F8F861FB69264AA2FB48
:104950000323DB0A7B617B69182B3AD97B69234AE5
:10496000A2FB03231B09224A02FB03F3FA69D31AB1
:10497000FB61F969F86800F09AF80346002B07D04C
:10498000FB6804225A74FB6800221A74012327E092
:10499000F86800F0B3F8B861BB69B3F1FF3F18D015
:1049A000BA69FB699A4214D2BB6903F5A83303F5CF
:1049B000C073BB61B969F86800F0B9F80346002B11
:1049C00007D0FB6804225A74FB6800221A74012382
:1049D00006E0FB6801225A74FB6800221A74002367
:1049E00018462037BD4680BDC5B3A291ABAAAAAA7E
:1049F0008051010080B584B000AF78600023FB6077
:104A00007B68002B01D101231DE07B681B685A687D
:104A10007B681B6822F008025A60FDF7EBFFF86024
:104A200009E0FDF7E7FF0246FB68D31AB3F57A7F8A
:104A300001D9032307E07B681B685B6803F0080368
:104A4000002BEED0002318461037BD4680BD80B441
:104A500087B000AF786000237B8200233B82002375
:104A6000FB8100237B617B681B689B697B827B6881
:104A70001B68DB69FB817B681B689B693B827A8AC8
:104A80003B8A9A4208D03B8A1A047B681B68DB6920
:104A90009BB213437B6104E07B8A1A04FB891343B6
:104AA0007B617B6918461C37BD4680BC704780B56A
:104AB00084B000AF786039600023FB73786800F041
:104AC0005DF80346002B02D00123FB7311E07B68E5
:104AD0001B683A68120C9A617B681B683A6892B24C
:104AE000DA61786800F072F80346002B01D00123E8
:104AF000FB73FB7B18461037BD4680BD80B485B084
:104B000000AF78600023FB810023BB817B681B68BA
:104B10001B6AFB817B681B685B6ABB81FB891A048B
:104B2000BB89134318461437BD4680BC704780B517
:104B300084B000AF786039600023FB73786800F0C0
:104B40001DF80346002B02D00123FB7311E07B68A4
:104B50001B683A68120C1A627B681B683A6892B24A
:104B60005A62786800F032F80346002B01D0012326
:104B7000FB73FB7B18461037BD4680BD80B584B003
:104B800000AF78600023FB60FDF734FFF86009E0B8
:104B9000FDF730FF0246FB68D31AB3F57A7F01D9DF
:104BA00003230FE07B681B685B6803F02003002B86
:104BB000EED07B681B685A687B681B6842F0100265
:104BC0005A60002318461037BD4680BD80B584B0BA
:104BD00000AF78600023FB607B681B685A687B68C5
:104BE0001B6822F010025A60FDF704FFF86009E02C
:104BF000FDF700FF0246FB68D31AB3F57A7F01D9AF
:104C0000032307E07B681B685B6803F02003002B2D
:104C1000EED0002318461037BD4680BD80B485B065
:104C200000AF0346FB710023FB6005E0FB68013326
:104C3000FB60FB790A3BFB71FB79092BF6D8FB681B
:104C4000DBB21B01DAB2FB791343DBB2184614372F
:104C5000BD4680BC704780B485B000AF0346FB7191
:104C60000023FB60FB791B09DBB21A4613469B004D
:104C700013445B00FB60FB7903F00F03DAB2FB68BF
:104C8000DBB21344DBB218461437BD4680BC704714
:104C900080B586B000AF7860396000237B61002367
:104CA0003B610023FB600023BB607B68DB7B7B6197
:104CB0007B685B7B3B617B689B7BFB600023BB600D
:104CC0006FE03B69012B11D03B69032B0ED03B6990
:104CD000052B0BD03B69072B08D03B69082B05D06F
:104CE0003B690A2B02D03B690C2B17D1FB681E2BAA
:104CF00003D8FB680133FB6050E03B690C2B05D007
:104D00003B6901333B610123FB6047E001233B61C9
:104D10000123FB607B6901337B613FE03B69042B2E
:104D200008D03B69062B05D03B69092B02D03B69B3
:104D30000B2B0CD1FB681D2B03D8FB680133FB60E8
:104D40002CE03B6901333B610123FB6026E03B69BA
:104D5000022B23D1FB681B2B03D8FB680133FB60BC
:104D60001CE0FB681C2B11D17B699BB2184600F03C
:104D700039F80346002B03D0FB680133FB600DE0DC
:104D80003B6901333B610123FB6007E0FB681D2B9E
:104D900004D13B6901333B610123FB60BB680133F4
:104DA000BB60BA683B689A428BD37B69DAB27B6896
:104DB000DA733B69DAB27B685A73FB68DAB27B68F4
:104DC0009A733B69DBB2FA68D2B21946786900F08F
:104DD0003BF803461A467B681A7300BF1837BD4676
:104DE00080BD000080B483B000AF0346FB80FB8829
:104DF00003F003039BB2002B01D000231DE0FB88CE
:104E0000104AA2FB03125209642101FB02F29B1A11
:104E10009BB2002B01D001230FE0FB88094AA2FBC3
:104E20000312D2094FF4C87101FB02F29B1A9BB224
:104E3000002B01D1012300E0002318460C37BD46AA
:104E400080BC70471F85EB5180B485B000AF78609F
:104E50000B46FB701346BB700023BB600023FB6056
:104E60007B6803F5FA63BB60FB78022B2DD8FA78D8
:104E700013465B001344DB009B1A2C4AA2FB03235E
:104E80005A08BB781A44BB681A44BB68013B9B08AC
:104E90001A44BB68013B2649A1FB03135B09D21AE4
:104EA000BB68013B2249A1FB0313DB0913441A1D14
:104EB000204BA3FB0213D11A49080B4499080B4657
:104EC000DB005B1AD31AFB6029E0FA7813465B001B
:104ED0001344DB009B1A154AA2FB03235A08BB7834
:104EE0001A44BB681A44BB689B081A44BB68104943
:104EF000A1FB03135B09D21ABB680D49A1FB031385
:104F0000DB0913449A1C0B4BA3FB0213D11A49086B
:104F10000B4499080B46DB005B1AD31AFB60FB6855
:104F2000DBB218461437BD4680BC7047398EE33873
:104F30001F85EB512549922480B582B000AF78607F
:104F40007B68002B01D1012376E07B685B6A002B34
:104F500008D17B685B68B3F5827F09D07B6800224B
:104F6000DA6105E07B6800221A617B6800225A61E1
:104F70007B6800229A627B6893F85130DBB2002B89
:104F800006D17B68002283F850207868FDF764FB27
:104F90007B68022283F851207B681B681A687B6853
:104FA0001B6822F040021A607B685B6803F482721F
:104FB0007B689B6803F404431A437B68DB6803F453
:104FC00000631A437B681B6903F002031A437B6882
:104FD0005B6903F001031A437B689B6903F4007368
:104FE0001A437B68DB6903F038031A437B681B6A4A
:104FF00003F0800342EA03017B689B6A03F40052DA
:105000007B681B680A431A607B689B691A0C7B6883
:105010001B6802F004025A607B681B68DA697B68CF
:105020001B6822F40062DA617B6800225A657B68A3
:10503000012283F85120002318460837BD4680BD61
:1050400080B588B000AFF860B9603B601346FB8064
:105050000023FB77FB6893F85030012B01D102232A
:105060002DE1FB68012283F85020FDF7C3FCB861F5
:10507000FB88FB82FB6893F85130DBB2012B02D036
:105080000223FB7716E1BB68002B02D0FB88002BC4
:1050900002D10123FB770DE1FB68032283F8512045
:1050A000FB6800225A65FB68BA681A63FB68FA88D5
:1050B0009A86FB68FA88DA86FB6800229A63FB68A6
:1050C00000229A87FB680022DA87FB6800225A6474
:1050D000FB6800221A64FB689B68B3F5004F0FD190
:1050E000FB681B681A68FB681B6822F040021A60A4
:1050F000FB681B681A68FB681B6842F480421A60F0
:10510000FB681B681B6803F04003402B07D0FB685B
:105110001B681A68FB681B6842F040021A60FB6853
:10512000DB68B3F5006F4FD1FB685B68002B02D0E2
:10513000FB8A012B42D1FB681B6B1A88FB681B683A
:10514000DA60FB681B6B9A1CFB681A63FB68DB8EDA
:105150009BB2013B9AB2FB68DA862FE0FB681B68C2
:105160009B6803F00203022B12D1FB681B6B1A88A9
:10517000FB681B68DA60FB681B6B9A1CFB681A6390
:10518000FB68DB8E9BB2013B9AB2FB68DA8615E0C6
:10519000FDF730FC0246BB69D31A3A689A4203D83D
:1051A0003B68B3F1FF3F02D13B68002B06D10323DC
:1051B000FB77FB68012283F851207BE0FB68DB8EE4
:1051C0009BB2002BCAD150E0FB685B68002B02D079
:1051D000FB8A012B44D1FB681A6BFB681B680C33FC
:1051E00012781A70FB681B6B5A1CFB681A63FB6809
:1051F000DB8E9BB2013B9AB2FB68DA8630E0FB683B
:105200001B689B6803F00203022B13D1FB681A6B27
:10521000FB681B680C3312781A70FB681B6B5A1CF6
:10522000FB681A63FB68DB8E9BB2013B9AB2FB689A
:10523000DA8615E0FDF7DEFB0246BB69D31A3A6851
:105240009A4203D83B68B3F1FF3F02D13B68002B81
:1052500006D10323FB77FB68012283F8512029E064
:10526000FB68DB8E9BB2002BC9D1BA693968F8683C
:1052700000F0B2F80346002B02D0FB6820225A65EA
:10528000FB689B68002B0AD100233B61FB681B680D
:10529000DB683B61FB681B689B683B613B69FB68A3
:1052A0005B6D002B02D00123FB7703E0FB6801223A
:1052B00083F85120FB68002283F85020FB7F1846BA
:1052C0002037BD4680BD000080B588B000AFF860D3
:1052D000B9603B601346FB71FDF78CFB0246BB6A6D
:1052E0009B1A3A681344FB61FDF784FBB861394BA4
:1052F0001B685B011B0DFA6902FB03F37B6154E041
:105300003B68B3F1FF3F50D0FDF774FB0246BB6929
:10531000D31AFA699A4202D9FB69002B3DD1FB6886
:105320001B685A68FB681B6822F0E0025A60FB6841
:105330005B68B3F5827F11D1FB689B68B3F5004FC2
:1053400004D0FB689B68B3F5806F07D1FB681B68CE
:105350001A68FB681B6822F040021A60FB689B6AAF
:10536000B3F5005F0FD1FB681B681A68FB681B6808
:1053700022F400521A60FB681B681A68FB681B68FD
:1053800042F400521A60FB68012283F85120FB6846
:10539000002283F85020032317E07B69002B01D102
:1053A0000023FB617B69013B7B61FB681B689A689A
:1053B000BB681340BA689A420CBF01230023DBB2DA
:1053C0001A46FB799A429BD1002318462037BD46E6
:1053D00080BD00BF2000002080B586B002AFF8601D
:1053E000B9607A607B680093BB6800228021F8680E
:1053F000FFF76AFF0346002B07D0FB685B6D43F0A5
:105400002002FB685A65032300E00023184610378A
:10541000BD4680BD80B582B000AF78607B68002B50
:1054200001D1012341E07B6893F83D30DBB2002BD2
:1054300006D17B68002283F83C207868FDF74AF9A2
:105440007B68022283F83D207B681A687B680433FE
:105450001946104600F06AFC7B68012283F846205A
:105460007B68012283F83E207B68012283F83F207D
:105470007B68012283F840207B68012283F8412069
:105480007B68012283F842207B68012283F8432055
:105490007B68012283F844207B68012283F8452041
:1054A0007B68012283F83D20002318460837BD465B
:1054B00080BD000080B485B000AF78607B6893F851
:1054C0003D30DBB2012B01D001233AE07B680222A0
:1054D00083F83D207B681B68DA687B681B6842F0B4
:1054E0000102DA607B681B68184A93420ED07B6821
:1054F0001B68B3F1804F09D07B681B68144A934244
:1055000004D07B681B68134A934211D17B681B68E7
:105510009B6803F00703FB60FB68062B10D07B68D9
:105520001B681A687B681B6842F001021A6007E07A
:105530007B681B681A687B681B6842F001021A606E
:10554000002318461437BD4680BC7047002C01402C
:10555000000400400008004080B483B000AF7860D1
:105560007B681B68DA687B681B6822F00102DA60DE
:105570007B681B681A6A41F211131340002B0FD18C
:105580007B681B681A6A40F244431340002B07D122
:105590007B681B681A687B681B6822F001021A602E
:1055A0007B68012283F83D20002318460C37BD4656
:1055B00080BC704780B582B000AF78607B68002BFC
:1055C00001D1012341E07B6893F83D30DBB2002B31
:1055D00006D17B68002283F83C20786800F039F817
:1055E0007B68022283F83D207B681A687B6804335D
:1055F0001946104600F09AFB7B68012283F846208A
:105600007B68012283F83E207B68012283F83F20DB
:105610007B68012283F840207B68012283F84120C7
:105620007B68012283F842207B68012283F84320B3
:105630007B68012283F844207B68012283F845209F
:105640007B68012283F83D20002318460837BD46B9
:1056500080BD80B483B000AF786000BF0C37BD461A
:1056600080BC704780B584B000AF786039603B681B
:10567000002B09D17B6893F83E30DBB2012B14BFBD
:1056800001230023DBB222E03B68042B09D17B68B5
:1056900093F83F30DBB2012B14BF01230023DBB2B0
:1056A00015E03B68082B09D17B6893F84030DBB2EA
:1056B000012B14BF01230023DBB208E07B6893F8C1
:1056C0004130DBB2012B14BF01230023DBB2002BDE
:1056D00001D001235EE03B68002B04D17B680222ED
:1056E00083F83E2013E03B68042B04D17B68022240
:1056F00083F83F200BE03B68082B04D17B68022233
:1057000083F8402003E07B68022283F841207B6815
:105710001B6801223968184600F088FD7B681B6809
:105720001E4A934207D17B681B685A6C7B681B68D2
:1057300042F400425A647B681B68184A93420ED0B8
:105740007B681B68B3F1804F09D07B681B68144AE3
:10575000934204D07B681B68124A934211D17B6844
:105760001B689B6803F00703FB60FB68062B10D0E7
:105770007B681B681A687B681B6842F001021A602C
:1057800007E07B681B681A687B681B6842F00102AF
:105790001A60002318461037BD4680BD002C01401A
:1057A000000400400008004080B582B000AF78607F
:1057B0007B681B681B6903F00203022B22D17B6804
:1057C0001B68DB6803F00203022B1BD17B681B689C
:1057D0006FF002021A617B6801221A777B681B68EE
:1057E0009B6903F00303002B03D0786800F076FA7E
:1057F00005E0786800F069FA786800F078FA7B686C
:1058000000221A777B681B681B6903F00403042BD2
:1058100022D17B681B68DB6803F00403042B1BD1D7
:105820007B681B686FF004021A617B6802221A779A
:105830007B681B689B6903F44073002B03D0786876
:1058400000F04CFA05E0786800F03FFA786800F064
:105850004EFA7B6800221A777B681B681B6903F08D
:105860000803082B22D17B681B68DB6803F0080360
:10587000082B1BD17B681B686FF008021A617B68DC
:1058800004221A777B681B68DB6903F00303002B93
:1058900003D0786800F022FA05E0786800F015FA85
:1058A000786800F024FA7B6800221A777B681B680E
:1058B0001B6903F01003102B22D17B681B68DB6887
:1058C00003F01003102B1BD17B681B686FF01002D4
:1058D0001A617B6808221A777B681B68DB6903F40E
:1058E0004073002B03D0786800F0F8F905E0786881
:1058F00000F0EBF9786800F0FAF97B6800221A777B
:105900007B681B681B6903F00103012B0ED17B68C8
:105910001B68DB6803F00103012B07D17B681B6860
:105920006FF001021A617868FCF74EF97B681B681A
:105930001B6903F08003802B0ED17B681B68DB683A
:1059400003F08003802B07D17B681B686FF0800217
:105950001A61786800F0F5FC7B681B681B6903F02E
:105960004003402B0ED17B681B68DB6803F04003CB
:10597000402B07D17B681B686FF040021A61786882
:1059800000F0BEF97B681B681B6903F02003202B25
:105990000ED17B681B68DB6803F02003202B07D146
:1059A0007B681B686FF020021A61786800F0C0FC09
:1059B00000BF0837BD4680BD80B586B000AFF86037
:1059C000B9607A600023FB75FB6893F83C30012BCB
:1059D00001D10223AEE0FB68012283F83C207B6802
:1059E0000C2B00F29F8001A252F823F0215A0008EC
:1059F000255B0008255B0008255B0008615A00084C
:105A0000255B0008255B0008255B0008A35A0008F9
:105A1000255B0008255B0008255B0008E35A0008A9
:105A2000FB681B68B968184600F0E2F9FB681B6860
:105A30009A69FB681B6842F008029A61FB681B6860
:105A40009A69FB681B6822F004029A61FB681B6874
:105A50009969BB681A69FB681B680A439A6164E02C
:105A6000FB681B68B968184600F028FAFB681B68D9
:105A70009A69FB681B6842F400629A61FB681B68C4
:105A80009A69FB681B6822F480629A61FB681B6854
:105A90009969BB681B691A02FB681B680A439A6113
:105AA00043E0FB681B68B968184600F071FAFB68B0
:105AB0001B68DA69FB681B6842F00802DA61FB6860
:105AC0001B68DA69FB681B6822F00402DA61FB6874
:105AD0001B68D969BB681A69FB681B680A43DA61ED
